{
  "contractName": "LandNFT",
  "abi": [
    {
      "inputs": [],
      "stateMutability": "nonpayable",
      "type": "constructor"
    },
    {
      "inputs": [
        {
          "internalType": "address",
          "name": "sender",
          "type": "address"
        },
        {
          "internalType": "uint256",
          "name": "tokenId",
          "type": "uint256"
        },
        {
          "internalType": "address",
          "name": "owner",
          "type": "address"
        }
      ],
      "name": "ERC721IncorrectOwner",
      "type": "error"
    },
    {
      "inputs": [
        {
          "internalType": "address",
          "name": "operator",
          "type": "address"
        },
        {
          "internalType": "uint256",
          "name": "tokenId",
          "type": "uint256"
        }
      ],
      "name": "ERC721InsufficientApproval",
      "type": "error"
    },
    {
      "inputs": [
        {
          "internalType": "address",
          "name": "approver",
          "type": "address"
        }
      ],
      "name": "ERC721InvalidApprover",
      "type": "error"
    },
    {
      "inputs": [
        {
          "internalType": "address",
          "name": "operator",
          "type": "address"
        }
      ],
      "name": "ERC721InvalidOperator",
      "type": "error"
    },
    {
      "inputs": [
        {
          "internalType": "address",
          "name": "owner",
          "type": "address"
        }
      ],
      "name": "ERC721InvalidOwner",
      "type": "error"
    },
    {
      "inputs": [
        {
          "internalType": "address",
          "name": "receiver",
          "type": "address"
        }
      ],
      "name": "ERC721InvalidReceiver",
      "type": "error"
    },
    {
      "inputs": [
        {
          "internalType": "address",
          "name": "sender",
          "type": "address"
        }
      ],
      "name": "ERC721InvalidSender",
      "type": "error"
    },
    {
      "inputs": [
        {
          "internalType": "uint256",
          "name": "tokenId",
          "type": "uint256"
        }
      ],
      "name": "ERC721NonexistentToken",
      "type": "error"
    },
    {
      "anonymous": false,
      "inputs": [
        {
          "indexed": true,
          "internalType": "address",
          "name": "owner",
          "type": "address"
        },
        {
          "indexed": true,
          "internalType": "address",
          "name": "approved",
          "type": "address"
        },
        {
          "indexed": true,
          "internalType": "uint256",
          "name": "tokenId",
          "type": "uint256"
        }
      ],
      "name": "Approval",
      "type": "event"
    },
    {
      "anonymous": false,
      "inputs": [
        {
          "indexed": true,
          "internalType": "address",
          "name": "owner",
          "type": "address"
        },
        {
          "indexed": true,
          "internalType": "address",
          "name": "operator",
          "type": "address"
        },
        {
          "indexed": false,
          "internalType": "bool",
          "name": "approved",
          "type": "bool"
        }
      ],
      "name": "ApprovalForAll",
      "type": "event"
    },
    {
      "anonymous": false,
      "inputs": [
        {
          "indexed": false,
          "internalType": "uint256",
          "name": "landId",
          "type": "uint256"
        },
        {
          "indexed": false,
          "internalType": "address",
          "name": "owner",
          "type": "address"
        }
      ],
      "name": "LandRegistered",
      "type": "event"
    },
    {
      "anonymous": false,
      "inputs": [
        {
          "indexed": true,
          "internalType": "address",
          "name": "from",
          "type": "address"
        },
        {
          "indexed": true,
          "internalType": "address",
          "name": "to",
          "type": "address"
        },
        {
          "indexed": true,
          "internalType": "uint256",
          "name": "tokenId",
          "type": "uint256"
        }
      ],
      "name": "Transfer",
      "type": "event"
    },
    {
      "inputs": [
        {
          "internalType": "address",
          "name": "to",
          "type": "address"
        },
        {
          "internalType": "uint256",
          "name": "tokenId",
          "type": "uint256"
        }
      ],
      "name": "approve",
      "outputs": [],
      "stateMutability": "nonpayable",
      "type": "function"
    },
    {
      "inputs": [
        {
          "internalType": "address",
          "name": "owner",
          "type": "address"
        }
      ],
      "name": "balanceOf",
      "outputs": [
        {
          "internalType": "uint256",
          "name": "",
          "type": "uint256"
        }
      ],
      "stateMutability": "view",
      "type": "function"
    },
    {
      "inputs": [
        {
          "internalType": "uint256",
          "name": "tokenId",
          "type": "uint256"
        }
      ],
      "name": "getApproved",
      "outputs": [
        {
          "internalType": "address",
          "name": "",
          "type": "address"
        }
      ],
      "stateMutability": "view",
      "type": "function"
    },
    {
      "inputs": [
        {
          "internalType": "address",
          "name": "owner",
          "type": "address"
        },
        {
          "internalType": "address",
          "name": "operator",
          "type": "address"
        }
      ],
      "name": "isApprovedForAll",
      "outputs": [
        {
          "internalType": "bool",
          "name": "",
          "type": "bool"
        }
      ],
      "stateMutability": "view",
      "type": "function"
    },
    {
      "inputs": [
        {
          "internalType": "uint256",
          "name": "",
          "type": "uint256"
        }
      ],
      "name": "lands",
      "outputs": [
        {
          "internalType": "address",
          "name": "firstOwner",
          "type": "address"
        },
        {
          "internalType": "address",
          "name": "presentOwner",
          "type": "address"
        },
        {
          "internalType": "string",
          "name": "description",
          "type": "string"
        },
        {
          "internalType": "string",
          "name": "image",
          "type": "string"
        },
        {
          "internalType": "uint256",
          "name": "area",
          "type": "uint256"
        },
        {
          "internalType": "bool",
          "name": "exists",
          "type": "bool"
        },
        {
          "internalType": "uint256",
          "name": "price",
          "type": "uint256"
        },
        {
          "internalType": "bool",
          "name": "isListed",
          "type": "bool"
        }
      ],
      "stateMutability": "view",
      "type": "function"
    },
    {
      "inputs": [
        {
          "internalType": "uint256",
          "name": "",
          "type": "uint256"
        }
      ],
      "name": "listedLands",
      "outputs": [
        {
          "internalType": "uint256",
          "name": "",
          "type": "uint256"
        }
      ],
      "stateMutability": "view",
      "type": "function"
    },
    {
      "inputs": [],
      "name": "name",
      "outputs": [
        {
          "internalType": "string",
          "name": "",
          "type": "string"
        }
      ],
      "stateMutability": "view",
      "type": "function"
    },
    {
      "inputs": [
        {
          "internalType": "uint256",
          "name": "tokenId",
          "type": "uint256"
        }
      ],
      "name": "ownerOf",
      "outputs": [
        {
          "internalType": "address",
          "name": "",
          "type": "address"
        }
      ],
      "stateMutability": "view",
      "type": "function"
    },
    {
      "inputs": [
        {
          "internalType": "address",
          "name": "from",
          "type": "address"
        },
        {
          "internalType": "address",
          "name": "to",
          "type": "address"
        },
        {
          "internalType": "uint256",
          "name": "tokenId",
          "type": "uint256"
        }
      ],
      "name": "safeTransferFrom",
      "outputs": [],
      "stateMutability": "nonpayable",
      "type": "function"
    },
    {
      "inputs": [
        {
          "internalType": "address",
          "name": "from",
          "type": "address"
        },
        {
          "internalType": "address",
          "name": "to",
          "type": "address"
        },
        {
          "internalType": "uint256",
          "name": "tokenId",
          "type": "uint256"
        },
        {
          "internalType": "bytes",
          "name": "data",
          "type": "bytes"
        }
      ],
      "name": "safeTransferFrom",
      "outputs": [],
      "stateMutability": "nonpayable",
      "type": "function"
    },
    {
      "inputs": [
        {
          "internalType": "address",
          "name": "operator",
          "type": "address"
        },
        {
          "internalType": "bool",
          "name": "approved",
          "type": "bool"
        }
      ],
      "name": "setApprovalForAll",
      "outputs": [],
      "stateMutability": "nonpayable",
      "type": "function"
    },
    {
      "inputs": [
        {
          "internalType": "bytes4",
          "name": "interfaceId",
          "type": "bytes4"
        }
      ],
      "name": "supportsInterface",
      "outputs": [
        {
          "internalType": "bool",
          "name": "",
          "type": "bool"
        }
      ],
      "stateMutability": "view",
      "type": "function"
    },
    {
      "inputs": [],
      "name": "symbol",
      "outputs": [
        {
          "internalType": "string",
          "name": "",
          "type": "string"
        }
      ],
      "stateMutability": "view",
      "type": "function"
    },
    {
      "inputs": [
        {
          "internalType": "uint256",
          "name": "tokenId",
          "type": "uint256"
        }
      ],
      "name": "tokenURI",
      "outputs": [
        {
          "internalType": "string",
          "name": "",
          "type": "string"
        }
      ],
      "stateMutability": "view",
      "type": "function"
    },
    {
      "inputs": [
        {
          "internalType": "address",
          "name": "from",
          "type": "address"
        },
        {
          "internalType": "address",
          "name": "to",
          "type": "address"
        },
        {
          "internalType": "uint256",
          "name": "tokenId",
          "type": "uint256"
        }
      ],
      "name": "transferFrom",
      "outputs": [],
      "stateMutability": "nonpayable",
      "type": "function"
    },
    {
      "inputs": [
        {
          "internalType": "address",
          "name": "",
          "type": "address"
        },
        {
          "internalType": "uint256",
          "name": "",
          "type": "uint256"
        }
      ],
      "name": "userMintedLands",
      "outputs": [
        {
          "internalType": "uint256",
          "name": "",
          "type": "uint256"
        }
      ],
      "stateMutability": "view",
      "type": "function"
    },
    {
      "inputs": [
        {
          "internalType": "uint256",
          "name": "id",
          "type": "uint256"
        },
        {
          "internalType": "string",
          "name": "description",
          "type": "string"
        },
        {
          "internalType": "string",
          "name": "image",
          "type": "string"
        },
        {
          "internalType": "string[2]",
          "name": "coordinates",
          "type": "string[2]"
        },
        {
          "internalType": "uint256",
          "name": "area",
          "type": "uint256"
        }
      ],
      "name": "registerLand",
      "outputs": [],
      "stateMutability": "nonpayable",
      "type": "function"
    },
    {
      "inputs": [
        {
          "internalType": "uint256",
          "name": "landId",
          "type": "uint256"
        }
      ],
      "name": "mintNFT",
      "outputs": [],
      "stateMutability": "nonpayable",
      "type": "function"
    },
    {
      "inputs": [
        {
          "internalType": "uint256",
          "name": "landId",
          "type": "uint256"
        },
        {
          "internalType": "uint256",
          "name": "priceInEther",
          "type": "uint256"
        }
      ],
      "name": "listForSaleInEther",
      "outputs": [],
      "stateMutability": "nonpayable",
      "type": "function"
    },
    {
      "inputs": [
        {
          "internalType": "uint256",
          "name": "landId",
          "type": "uint256"
        }
      ],
      "name": "buyLand",
      "outputs": [],
      "stateMutability": "payable",
      "type": "function"
    },
    {
      "inputs": [],
      "name": "getUserLandDetails",
      "outputs": [
        {
          "internalType": "uint256[]",
          "name": "",
          "type": "uint256[]"
        }
      ],
      "stateMutability": "view",
      "type": "function"
    },
    {
      "inputs": [],
      "name": "getListedLands",
      "outputs": [
        {
          "internalType": "uint256[]",
          "name": "",
          "type": "uint256[]"
        }
      ],
      "stateMutability": "view",
      "type": "function"
    },
    {
      "inputs": [
        {
          "internalType": "address",
          "name": "user",
          "type": "address"
        }
      ],
      "name": "getUserMintedLands",
      "outputs": [
        {
          "internalType": "uint256[]",
          "name": "",
          "type": "uint256[]"
        }
      ],
      "stateMutability": "view",
      "type": "function"
    },
    {
      "inputs": [
        {
          "internalType": "uint256",
          "name": "landId",
          "type": "uint256"
        }
      ],
      "name": "getLand",
      "outputs": [
        {
          "internalType": "address",
          "name": "firstOwner",
          "type": "address"
        },
        {
          "internalType": "address",
          "name": "presentOwner",
          "type": "address"
        },
        {
          "internalType": "string",
          "name": "description",
          "type": "string"
        },
        {
          "internalType": "string",
          "name": "image",
          "type": "string"
        },
        {
          "internalType": "string[2]",
          "name": "coordinates",
          "type": "string[2]"
        },
        {
          "internalType": "uint256",
          "name": "area",
          "type": "uint256"
        },
        {
          "internalType": "bool",
          "name": "exists",
          "type": "bool"
        },
        {
          "internalType": "uint256",
          "name": "price",
          "type": "uint256"
        },
        {
          "internalType": "bool",
          "name": "isListed",
          "type": "bool"
        }
      ],
      "stateMutability": "view",
      "type": "function"
    }
  ],
  "bytecode": "0x608060405234801562000010575f80fd5b506040518060400160405280600781526020017f4c616e644e4654000000000000000000000000000000000000000000000000008152506040518060400160405280600481526020017f4c414e4400000000000000000000000000000000000000000000000000000000815250815f90816200008d91906200030c565b5080600190816200009f91906200030c565b505050620003f0565b5f81519050919050565b7f4e487b71000000000000000000000000000000000000000000000000000000005f52604160045260245ffd5b7f4e487b71000000000000000000000000000000000000000000000000000000005f52602260045260245ffd5b5f60028204905060018216806200012457607f821691505b6020821081036200013a5762000139620000df565b5b50919050565b5f819050815f5260205f209050919050565b5f6020601f8301049050919050565b5f82821b905092915050565b5f600883026200019e7fffffffffffffffffffffffffffffffffffffffffffffffffffffffffffffffff8262000161565b620001aa868362000161565b95508019841693508086168417925050509392505050565b5f819050919050565b5f819050919050565b5f620001f4620001ee620001e884620001c2565b620001cb565b620001c2565b9050919050565b5f819050919050565b6200020f83620001d4565b620002276200021e82620001fb565b8484546200016d565b825550505050565b5f90565b6200023d6200022f565b6200024a81848462000204565b505050565b5b818110156200027157620002655f8262000233565b60018101905062000250565b5050565b601f821115620002c0576200028a8162000140565b620002958462000152565b81016020851015620002a5578190505b620002bd620002b48562000152565b8301826200024f565b50505b505050565b5f82821c905092915050565b5f620002e25f1984600802620002c5565b1980831691505092915050565b5f620002fc8383620002d1565b9150826002028217905092915050565b6200031782620000a8565b67ffffffffffffffff811115620003335762000332620000b2565b5b6200033f82546200010c565b6200034c82828562000275565b5f60209050601f83116001811462000382575f84156200036d578287015190505b620003798582620002ef565b865550620003e8565b601f198416620003928662000140565b5f5b82811015620003bb5784890151825560018201915060208501945060208101905062000394565b86831015620003db5784890151620003d7601f891682620002d1565b8355505b6001600288020188555050505b505050505050565b61432680620003fe5f395ff3fe60806040526004361061014a575f3560e01c80638e46b3b6116100b5578063c87b56dd1161006e578063c87b56dd1461049e578063ced39558146104da578063e261f1e5146104f6578063e985e9c514610539578063f02dd53f14610575578063f02e4746146105b95761014a565b80638e46b3b61461039857806392642744146103d457806395d89b41146103fc578063a22cb46514610426578063b88d4fde1461044e578063bc31ba8a146104765761014a565b806323b872dd1161010757806323b872dd1461027e57806342842e0e146102a65780636352211e146102ce5780636c24efab1461030a57806370a08231146103325780637b704b101461036e5761014a565b806301ffc9a71461014e57806302ceb2731461018a57806306fdde03146101c6578063081812fc146101f0578063095ea7b31461022c5780630b3972b914610254575b5f80fd5b348015610159575f80fd5b50610174600480360381019061016f9190612def565b6105f5565b6040516101819190612e34565b60405180910390f35b348015610195575f80fd5b506101b060048036038101906101ab9190612e80565b6106d6565b6040516101bd9190612eba565b60405180910390f35b3480156101d1575f80fd5b506101da6106f6565b6040516101e79190612f5d565b60405180910390f35b3480156101fb575f80fd5b5061021660048036038101906102119190612e80565b610785565b6040516102239190612fbc565b60405180910390f35b348015610237575f80fd5b50610252600480360381019061024d9190612fff565b6107a0565b005b34801561025f575f80fd5b506102686107b6565b60405161027591906130f4565b60405180910390f35b348015610289575f80fd5b506102a4600480360381019061029f9190613114565b6109e3565b005b3480156102b1575f80fd5b506102cc60048036038101906102c79190613114565b610ae2565b005b3480156102d9575f80fd5b506102f460048036038101906102ef9190612e80565b610b01565b6040516103019190612fbc565b60405180910390f35b348015610315575f80fd5b50610330600480360381019061032b9190613360565b610b12565b005b34801561033d575f80fd5b506103586004803603810190610353919061342b565b610eff565b6040516103659190612eba565b60405180910390f35b348015610379575f80fd5b50610382610fb5565b60405161038f91906130f4565b60405180910390f35b3480156103a3575f80fd5b506103be60048036038101906103b99190612fff565b61100b565b6040516103cb9190612eba565b60405180910390f35b3480156103df575f80fd5b506103fa60048036038101906103f59190612e80565b611036565b005b348015610407575f80fd5b506104106111a4565b60405161041d9190612f5d565b60405180910390f35b348015610431575f80fd5b5061044c60048036038101906104479190613480565b611234565b005b348015610459575f80fd5b50610474600480360381019061046f919061355c565b61124a565b005b348015610481575f80fd5b5061049c600480360381019061049791906135dc565b611267565b005b3480156104a9575f80fd5b506104c460048036038101906104bf9190612e80565b6113ef565b6040516104d19190612f5d565b60405180910390f35b6104f460048036038101906104ef9190612e80565b611455565b005b348015610501575f80fd5b5061051c60048036038101906105179190612e80565b6118d0565b60405161053098979695949392919061361a565b60405180910390f35b348015610544575f80fd5b5061055f600480360381019061055a91906136a4565b611a76565b60405161056c9190612e34565b60405180910390f35b348015610580575f80fd5b5061059b60048036038101906105969190612e80565b611b04565b6040516105b0999897969594939291906137d9565b60405180910390f35b3480156105c4575f80fd5b506105df60048036038101906105da919061342b565b611d9a565b6040516105ec91906130f4565b60405180910390f35b5f7f80ac58cd000000000000000000000000000000000000000000000000000000007bffffffffffffffffffffffffffffffffffffffffffffffffffffffff1916827bffffffffffffffffffffffffffffffffffffffffffffffffffffffff191614806106bf57507f5b5e139f000000000000000000000000000000000000000000000000000000007bffffffffffffffffffffffffffffffffffffffffffffffffffffffff1916827bffffffffffffffffffffffffffffffffffffffffffffffffffffffff1916145b806106cf57506106ce82611e2d565b5b9050919050565b600881815481106106e5575f80fd5b905f5260205f20015f915090505481565b60605f8054610704906138a6565b80601f0160208091040260200160405190810160405280929190818152602001828054610730906138a6565b801561077b5780601f106107525761010080835404028352916020019161077b565b820191905f5260205f20905b81548152906001019060200180831161075e57829003601f168201915b5050505050905090565b5f61078f82611e96565b5061079982611f1c565b9050919050565b6107b282826107ad611f55565b611f5c565b5050565b60605f805b600880549050811015610871575f600882815481106107dd576107dc6138d6565b5b905f5260205f20015490503373ffffffffffffffffffffffffffffffffffffffff1660065f8381526020019081526020015f206001015f9054906101000a900473ffffffffffffffffffffffffffffffffffffffff1673ffffffffffffffffffffffffffffffffffffffff160361085d57828061085990613930565b9350505b50808061086990613930565b9150506107bb565b505f81116108b4576040517f08c379a00000000000000000000000000000000000000000000000000000000081526004016108ab906139c1565b60405180910390fd5b5f8167ffffffffffffffff8111156108cf576108ce61316c565b5b6040519080825280602002602001820160405280156108fd5781602001602082028036833780820191505090505b5090505f805b6008805490508110156109d9575f60088281548110610925576109246138d6565b5b905f5260205f20015490503373ffffffffffffffffffffffffffffffffffffffff1660065f8381526020019081526020015f206001015f9054906101000a900473ffffffffffffffffffffffffffffffffffffffff1673ffffffffffffffffffffffffffffffffffffffff16036109c557808484815181106109aa576109a96138d6565b5b60200260200101818152505082806109c190613930565b9350505b5080806109d190613930565b915050610903565b5081935050505090565b5f73ffffffffffffffffffffffffffffffffffffffff168273ffffffffffffffffffffffffffffffffffffffff1603610a53575f6040517f64a0ae92000000000000000000000000000000000000000000000000000000008152600401610a4a9190612fbc565b60405180910390fd5b5f610a668383610a61611f55565b611f6e565b90508373ffffffffffffffffffffffffffffffffffffffff168173ffffffffffffffffffffffffffffffffffffffff1614610adc578382826040517f64283d7b000000000000000000000000000000000000000000000000000000008152600401610ad3939291906139df565b60405180910390fd5b50505050565b610afc83838360405180602001604052805f81525061124a565b505050565b5f610b0b82611e96565b9050919050565b60065f8681526020019081526020015f206007015f9054906101000a900460ff1615610b73576040517f08c379a0000000000000000000000000000000000000000000000000000000008152600401610b6a90613a5e565b60405180910390fd5b5f5b600880549050811015610d18575f60088281548110610b9757610b966138d6565b5b905f5260205f2001549050835f60028110610bb557610bb46138d6565b5b6020020151604051602001610bca9190613ab6565b6040516020818303038152906040528051906020012060065f8381526020019081526020015f206004015f60028110610c0657610c056138d6565b5b01604051602001610c179190613b5e565b60405160208183030381529060405280519060200120148015610cc4575083600160028110610c4957610c486138d6565b5b6020020151604051602001610c5e9190613ab6565b6040516020818303038152906040528051906020012060065f8381526020019081526020015f20600401600160028110610c9b57610c9a6138d6565b5b01604051602001610cac9190613b5e565b60405160208183030381529060405280519060200120145b15610d04576040517f08c379a0000000000000000000000000000000000000000000000000000000008152600401610cfb90613be4565b60405180910390fd5b508080610d1090613930565b915050610b75565b506040518061012001604052803373ffffffffffffffffffffffffffffffffffffffff1681526020013373ffffffffffffffffffffffffffffffffffffffff1681526020018581526020018481526020018381526020018281526020016001151581526020015f81526020015f151581525060065f8781526020019081526020015f205f820151815f015f6101000a81548173ffffffffffffffffffffffffffffffffffffffff021916908373ffffffffffffffffffffffffffffffffffffffff1602179055506020820151816001015f6101000a81548173ffffffffffffffffffffffffffffffffffffffff021916908373ffffffffffffffffffffffffffffffffffffffff1602179055506040820151816002019081610e3a9190613d8d565b506060820151816003019081610e509190613d8d565b50608082015181600401906002610e68929190612c9b565b5060a0820151816006015560c0820151816007015f6101000a81548160ff02191690831515021790555060e08201518160080155610100820151816009015f6101000a81548160ff0219169083151502179055509050507fcb4990052f95f6057496d19524f6c3163f50af9f33f2c15b092928e03414323e8533604051610ef0929190613e5c565b60405180910390a15050505050565b5f8073ffffffffffffffffffffffffffffffffffffffff168273ffffffffffffffffffffffffffffffffffffffff1603610f70575f6040517f89c62b64000000000000000000000000000000000000000000000000000000008152600401610f679190612fbc565b60405180910390fd5b60035f8373ffffffffffffffffffffffffffffffffffffffff1673ffffffffffffffffffffffffffffffffffffffff1681526020019081526020015f20549050919050565b6060600880548060200260200160405190810160405280929190818152602001828054801561100157602002820191905f5260205f20905b815481526020019060010190808311610fed575b5050505050905090565b6007602052815f5260405f208181548110611024575f80fd5b905f5260205f20015f91509150505481565b60065f8281526020019081526020015f206007015f9054906101000a900460ff16611096576040517f08c379a000000000000000000000000000000000000000000000000000000000815260040161108d90613ecd565b60405180910390fd5b3373ffffffffffffffffffffffffffffffffffffffff1660065f8381526020019081526020015f205f015f9054906101000a900473ffffffffffffffffffffffffffffffffffffffff1673ffffffffffffffffffffffffffffffffffffffff1614611136576040517f08c379a000000000000000000000000000000000000000000000000000000000815260040161112d90613f35565b60405180910390fd5b6111403382612179565b60075f3373ffffffffffffffffffffffffffffffffffffffff1673ffffffffffffffffffffffffffffffffffffffff1681526020019081526020015f2081908060018154018082558091505060019003905f5260205f20015f909190919091505550565b6060600180546111b3906138a6565b80601f01602080910402602001604051908101604052809291908181526020018280546111df906138a6565b801561122a5780601f106112015761010080835404028352916020019161122a565b820191905f5260205f20905b81548152906001019060200180831161120d57829003601f168201915b5050505050905090565b61124661123f611f55565b838361226c565b5050565b6112558484846109e3565b611261848484846123d5565b50505050565b60065f8381526020019081526020015f206007015f9054906101000a900460ff166112c7576040517f08c379a00000000000000000000000000000000000000000000000000000000081526004016112be90613ecd565b60405180910390fd5b3373ffffffffffffffffffffffffffffffffffffffff1660065f8481526020019081526020015f206001015f9054906101000a900473ffffffffffffffffffffffffffffffffffffffff1673ffffffffffffffffffffffffffffffffffffffff1614611368576040517f08c379a000000000000000000000000000000000000000000000000000000000815260040161135f90613fc3565b60405180910390fd5b5f670de0b6b3a76400008261137d9190613fe1565b90508060065f8581526020019081526020015f2060080181905550600160065f8581526020019081526020015f206009015f6101000a81548160ff021916908315150217905550600883908060018154018082558091505060019003905f5260205f20015f9091909190915055505050565b60606113fa82611e96565b505f611404612587565b90505f8151116114225760405180602001604052805f81525061144d565b8061142c8461259d565b60405160200161143d929190614022565b6040516020818303038152906040525b915050919050565b5f60065f8381526020019081526020015f209050806007015f9054906101000a900460ff166114b9576040517f08c379a00000000000000000000000000000000000000000000000000000000081526004016114b090613ecd565b60405180910390fd5b5f73ffffffffffffffffffffffffffffffffffffffff16816001015f9054906101000a900473ffffffffffffffffffffffffffffffffffffffff1673ffffffffffffffffffffffffffffffffffffffff160361154a576040517f08c379a0000000000000000000000000000000000000000000000000000000008152600401611541906140b5565b60405180910390fd5b8060080154341015611591576040517f08c379a000000000000000000000000000000000000000000000000000000000815260040161158890614143565b60405180910390fd5b6115bf816001015f9054906101000a900473ffffffffffffffffffffffffffffffffffffffff163384612667565b806001015f9054906101000a900473ffffffffffffffffffffffffffffffffffffffff1673ffffffffffffffffffffffffffffffffffffffff166108fc3490811502906040515f60405180830381858888f19350505050158015611625573d5f803e3d5ffd5b505f816001015f9054906101000a900473ffffffffffffffffffffffffffffffffffffffff16905033826001015f6101000a81548173ffffffffffffffffffffffffffffffffffffffff021916908373ffffffffffffffffffffffffffffffffffffffff1602179055505f82600801819055505f826009015f6101000a81548160ff0219169083151502179055505f5b6008805490508110156117705783600882815481106116d7576116d66138d6565b5b905f5260205f2001540361175d57600860016008805490506116f99190614161565b8154811061170a576117096138d6565b5b905f5260205f20015460088281548110611727576117266138d6565b5b905f5260205f200181905550600880548061174557611744614194565b5b600190038181905f5260205f20015f90559055611770565b808061176890613930565b9150506116b5565b505f60075f8373ffffffffffffffffffffffffffffffffffffffff1673ffffffffffffffffffffffffffffffffffffffff1681526020019081526020015f2090505f5b818054905081101561186857848282815481106117d3576117d26138d6565b5b905f5260205f200154036118555781600183805490506117f39190614161565b81548110611804576118036138d6565b5b905f5260205f2001548282815481106118205761181f6138d6565b5b905f5260205f2001819055508180548061183d5761183c614194565b5b600190038181905f5260205f20015f90559055611868565b808061186090613930565b9150506117b3565b5060075f3373ffffffffffffffffffffffffffffffffffffffff1673ffffffffffffffffffffffffffffffffffffffff1681526020019081526020015f2084908060018154018082558091505060019003905f5260205f20015f909190919091505550505050565b6006602052805f5260405f205f91509050805f015f9054906101000a900473ffffffffffffffffffffffffffffffffffffffff1690806001015f9054906101000a900473ffffffffffffffffffffffffffffffffffffffff1690806002018054611939906138a6565b80601f0160208091040260200160405190810160405280929190818152602001828054611965906138a6565b80156119b05780601f10611987576101008083540402835291602001916119b0565b820191905f5260205f20905b81548152906001019060200180831161199357829003601f168201915b5050505050908060030180546119c5906138a6565b80601f01602080910402602001604051908101604052809291908181526020018280546119f1906138a6565b8015611a3c5780601f10611a1357610100808354040283529160200191611a3c565b820191905f5260205f20905b815481529060010190602001808311611a1f57829003601f168201915b505050505090806006015490806007015f9054906101000a900460ff1690806008015490806009015f9054906101000a900460ff16905088565b5f60055f8473ffffffffffffffffffffffffffffffffffffffff1673ffffffffffffffffffffffffffffffffffffffff1681526020019081526020015f205f8373ffffffffffffffffffffffffffffffffffffffff1673ffffffffffffffffffffffffffffffffffffffff1681526020019081526020015f205f9054906101000a900460ff16905092915050565b5f80606080611b11612ce7565b5f805f805f60065f8c81526020019081526020015f209050805f015f9054906101000a900473ffffffffffffffffffffffffffffffffffffffff16816001015f9054906101000a900473ffffffffffffffffffffffffffffffffffffffff168260020183600301846004018560060154866007015f9054906101000a900460ff168760080154886009015f9054906101000a900460ff16868054611bb4906138a6565b80601f0160208091040260200160405190810160405280929190818152602001828054611be0906138a6565b8015611c2b5780601f10611c0257610100808354040283529160200191611c2b565b820191905f5260205f20905b815481529060010190602001808311611c0e57829003601f168201915b50505050509650858054611c3e906138a6565b80601f0160208091040260200160405190810160405280929190818152602001828054611c6a906138a6565b8015611cb55780601f10611c8c57610100808354040283529160200191611cb5565b820191905f5260205f20905b815481529060010190602001808311611c9857829003601f168201915b5050505050955084600280602002604051908101604052809291905f905b82821015611d74578382018054611ce9906138a6565b80601f0160208091040260200160405190810160405280929190818152602001828054611d15906138a6565b8015611d605780601f10611d3757610100808354040283529160200191611d60565b820191905f5260205f20905b815481529060010190602001808311611d4357829003601f168201915b505050505081526020019060010190611cd3565b505050509450995099509950995099509950995099509950509193959799909294969850565b606060075f8373ffffffffffffffffffffffffffffffffffffffff1673ffffffffffffffffffffffffffffffffffffffff1681526020019081526020015f20805480602002602001604051908101604052809291908181526020018280548015611e2157602002820191905f5260205f20905b815481526020019060010190808311611e0d575b50505050509050919050565b5f7f01ffc9a7000000000000000000000000000000000000000000000000000000007bffffffffffffffffffffffffffffffffffffffffffffffffffffffff1916827bffffffffffffffffffffffffffffffffffffffffffffffffffffffff1916149050919050565b5f80611ea1836127cf565b90505f73ffffffffffffffffffffffffffffffffffffffff168173ffffffffffffffffffffffffffffffffffffffff1603611f1357826040517f7e273289000000000000000000000000000000000000000000000000000000008152600401611f0a9190612eba565b60405180910390fd5b80915050919050565b5f60045f8381526020019081526020015f205f9054906101000a900473ffffffffffffffffffffffffffffffffffffffff169050919050565b5f33905090565b611f698383836001612808565b505050565b5f80611f79846127cf565b90505f73ffffffffffffffffffffffffffffffffffffffff168373ffffffffffffffffffffffffffffffffffffffff1614611fba57611fb98184866129c7565b5b5f73ffffffffffffffffffffffffffffffffffffffff168173ffffffffffffffffffffffffffffffffffffffff161461204557611ff95f855f80612808565b600160035f8373ffffffffffffffffffffffffffffffffffffffff1673ffffffffffffffffffffffffffffffffffffffff1681526020019081526020015f205f82825403925050819055505b5f73ffffffffffffffffffffffffffffffffffffffff168573ffffffffffffffffffffffffffffffffffffffff16146120c457600160035f8773ffffffffffffffffffffffffffffffffffffffff1673ffffffffffffffffffffffffffffffffffffffff1681526020019081526020015f205f82825401925050819055505b8460025f8681526020019081526020015f205f6101000a81548173ffffffffffffffffffffffffffffffffffffffff021916908373ffffffffffffffffffffffffffffffffffffffff160217905550838573ffffffffffffffffffffffffffffffffffffffff168273ffffffffffffffffffffffffffffffffffffffff167fddf252ad1be2c89b69c2b068fc378daa952ba7f163c4a11628f55a4df523b3ef60405160405180910390a4809150509392505050565b5f73ffffffffffffffffffffffffffffffffffffffff168273ffffffffffffffffffffffffffffffffffffffff16036121e9575f6040517f64a0ae920000000000000000000000000000000000000000000000000000000081526004016121e09190612fbc565b60405180910390fd5b5f6121f583835f611f6e565b90505f73ffffffffffffffffffffffffffffffffffffffff168173ffffffffffffffffffffffffffffffffffffffff1614612267575f6040517f73c6ac6e00000000000000000000000000000000000000000000000000000000815260040161225e9190612fbc565b60405180910390fd5b505050565b5f73ffffffffffffffffffffffffffffffffffffffff168273ffffffffffffffffffffffffffffffffffffffff16036122dc57816040517f5b08ba180000000000000000000000000000000000000000000000000000000081526004016122d39190612fbc565b60405180910390fd5b8060055f8573ffffffffffffffffffffffffffffffffffffffff1673ffffffffffffffffffffffffffffffffffffffff1681526020019081526020015f205f8473ffffffffffffffffffffffffffffffffffffffff1673ffffffffffffffffffffffffffffffffffffffff1681526020019081526020015f205f6101000a81548160ff0219169083151502179055508173ffffffffffffffffffffffffffffffffffffffff168373ffffffffffffffffffffffffffffffffffffffff167f17307eab39ab6107e8899845ad3d59bd9653f200f220920489ca2b5937696c31836040516123c89190612e34565b60405180910390a3505050565b5f8373ffffffffffffffffffffffffffffffffffffffff163b1115612581578273ffffffffffffffffffffffffffffffffffffffff1663150b7a02612418611f55565b8685856040518563ffffffff1660e01b815260040161243a9493929190614213565b6020604051808303815f875af192505050801561247557506040513d601f19601f820116820180604052508101906124729190614271565b60015b6124f6573d805f81146124a3576040519150601f19603f3d011682016040523d82523d5f602084013e6124a8565b606091505b505f8151036124ee57836040517f64a0ae920000000000000000000000000000000000000000000000000000000081526004016124e59190612fbc565b60405180910390fd5b805181602001fd5b63150b7a0260e01b7bffffffffffffffffffffffffffffffffffffffffffffffffffffffff1916817bffffffffffffffffffffffffffffffffffffffffffffffffffffffff19161461257f57836040517f64a0ae920000000000000000000000000000000000000000000000000000000081526004016125769190612fbc565b60405180910390fd5b505b50505050565b606060405180602001604052805f815250905090565b60605f60016125ab84612a8a565b0190505f8167ffffffffffffffff8111156125c9576125c861316c565b5b6040519080825280601f01601f1916602001820160405280156125fb5781602001600182028036833780820191505090505b5090505f82602001820190505b60011561265c578080600190039150507f3031323334353637383961626364656600000000000000000000000000000000600a86061a8153600a85816126515761265061429c565b5b0494505f8503612608575b819350505050919050565b5f73ffffffffffffffffffffffffffffffffffffffff168273ffffffffffffffffffffffffffffffffffffffff16036126d7575f6040517f64a0ae920000000000000000000000000000000000000000000000000000000081526004016126ce9190612fbc565b60405180910390fd5b5f6126e383835f611f6e565b90505f73ffffffffffffffffffffffffffffffffffffffff168173ffffffffffffffffffffffffffffffffffffffff160361275557816040517f7e27328900000000000000000000000000000000000000000000000000000000815260040161274c9190612eba565b60405180910390fd5b8373ffffffffffffffffffffffffffffffffffffffff168173ffffffffffffffffffffffffffffffffffffffff16146127c9578382826040517f64283d7b0000000000000000000000000000000000000000000000000000000081526004016127c0939291906139df565b60405180910390fd5b50505050565b5f60025f8381526020019081526020015f205f9054906101000a900473ffffffffffffffffffffffffffffffffffffffff169050919050565b808061284057505f73ffffffffffffffffffffffffffffffffffffffff168273ffffffffffffffffffffffffffffffffffffffff1614155b15612972575f61284f84611e96565b90505f73ffffffffffffffffffffffffffffffffffffffff168373ffffffffffffffffffffffffffffffffffffffff16141580156128b957508273ffffffffffffffffffffffffffffffffffffffff168173ffffffffffffffffffffffffffffffffffffffff1614155b80156128cc57506128ca8184611a76565b155b1561290e57826040517fa9fbf51f0000000000000000000000000000000000000000000000000000000081526004016129059190612fbc565b60405180910390fd5b811561297057838573ffffffffffffffffffffffffffffffffffffffff168273ffffffffffffffffffffffffffffffffffffffff167f8c5be1e5ebec7d5bd14f71427d1e84f3dd0314c0f7b2291e5b200ac8c7c3b92560405160405180910390a45b505b8360045f8581526020019081526020015f205f6101000a81548173ffffffffffffffffffffffffffffffffffffffff021916908373ffffffffffffffffffffffffffffffffffffffff16021790555050505050565b6129d2838383612bdb565b612a85575f73ffffffffffffffffffffffffffffffffffffffff168373ffffffffffffffffffffffffffffffffffffffff1603612a4657806040517f7e273289000000000000000000000000000000000000000000000000000000008152600401612a3d9190612eba565b60405180910390fd5b81816040517f177e802f000000000000000000000000000000000000000000000000000000008152600401612a7c9291906142c9565b60405180910390fd5b505050565b5f805f90507a184f03e93ff9f4daa797ed6e38ed64bf6a1f0100000000000000008310612ae6577a184f03e93ff9f4daa797ed6e38ed64bf6a1f0100000000000000008381612adc57612adb61429c565b5b0492506040810190505b6d04ee2d6d415b85acef81000000008310612b23576d04ee2d6d415b85acef81000000008381612b1957612b1861429c565b5b0492506020810190505b662386f26fc100008310612b5257662386f26fc100008381612b4857612b4761429c565b5b0492506010810190505b6305f5e1008310612b7b576305f5e1008381612b7157612b7061429c565b5b0492506008810190505b6127108310612ba0576127108381612b9657612b9561429c565b5b0492506004810190505b60648310612bc35760648381612bb957612bb861429c565b5b0492506002810190505b600a8310612bd2576001810190505b80915050919050565b5f8073ffffffffffffffffffffffffffffffffffffffff168373ffffffffffffffffffffffffffffffffffffffff1614158015612c9257508273ffffffffffffffffffffffffffffffffffffffff168473ffffffffffffffffffffffffffffffffffffffff161480612c535750612c528484611a76565b5b80612c9157508273ffffffffffffffffffffffffffffffffffffffff16612c7983611f1c565b73ffffffffffffffffffffffffffffffffffffffff16145b5b90509392505050565b8260028101928215612cd6579160200282015b82811115612cd5578251829081612cc59190613d8d565b5091602001919060010190612cae565b5b509050612ce39190612d0e565b5090565b60405180604001604052806002905b6060815260200190600190039081612cf65790505090565b5b80821115612d2d575f8181612d249190612d31565b50600101612d0f565b5090565b508054612d3d906138a6565b5f825580601f10612d4e5750612d6b565b601f0160209004905f5260205f2090810190612d6a9190612d6e565b5b50565b5b80821115612d85575f815f905550600101612d6f565b5090565b5f604051905090565b5f80fd5b5f80fd5b5f7fffffffff0000000000000000000000000000000000000000000000000000000082169050919050565b612dce81612d9a565b8114612dd8575f80fd5b50565b5f81359050612de981612dc5565b92915050565b5f60208284031215612e0457612e03612d92565b5b5f612e1184828501612ddb565b91505092915050565b5f8115159050919050565b612e2e81612e1a565b82525050565b5f602082019050612e475f830184612e25565b92915050565b5f819050919050565b612e5f81612e4d565b8114612e69575f80fd5b50565b5f81359050612e7a81612e56565b92915050565b5f60208284031215612e9557612e94612d92565b5b5f612ea284828501612e6c565b91505092915050565b612eb481612e4d565b82525050565b5f602082019050612ecd5f830184612eab565b92915050565b5f81519050919050565b5f82825260208201905092915050565b5f5b83811015612f0a578082015181840152602081019050612eef565b5f8484015250505050565b5f601f19601f8301169050919050565b5f612f2f82612ed3565b612f398185612edd565b9350612f49818560208601612eed565b612f5281612f15565b840191505092915050565b5f6020820190508181035f830152612f758184612f25565b905092915050565b5f73ffffffffffffffffffffffffffffffffffffffff82169050919050565b5f612fa682612f7d565b9050919050565b612fb681612f9c565b82525050565b5f602082019050612fcf5f830184612fad565b92915050565b612fde81612f9c565b8114612fe8575f80fd5b50565b5f81359050612ff981612fd5565b92915050565b5f806040838503121561301557613014612d92565b5b5f61302285828601612feb565b925050602061303385828601612e6c565b9150509250929050565b5f81519050919050565b5f82825260208201905092915050565b5f819050602082019050919050565b61306f81612e4d565b82525050565b5f6130808383613066565b60208301905092915050565b5f602082019050919050565b5f6130a28261303d565b6130ac8185613047565b93506130b783613057565b805f5b838110156130e75781516130ce8882613075565b97506130d98361308c565b9250506001810190506130ba565b5085935050505092915050565b5f6020820190508181035f83015261310c8184613098565b905092915050565b5f805f6060848603121561312b5761312a612d92565b5b5f61313886828701612feb565b935050602061314986828701612feb565b925050604061315a86828701612e6c565b9150509250925092565b5f80fd5b5f80fd5b7f4e487b71000000000000000000000000000000000000000000000000000000005f52604160045260245ffd5b6131a282612f15565b810181811067ffffffffffffffff821117156131c1576131c061316c565b5b80604052505050565b5f6131d3612d89565b90506131df8282613199565b919050565b5f67ffffffffffffffff8211156131fe576131fd61316c565b5b61320782612f15565b9050602081019050919050565b828183375f83830152505050565b5f61323461322f846131e4565b6131ca565b9050828152602081018484840111156132505761324f613168565b5b61325b848285613214565b509392505050565b5f82601f83011261327757613276613164565b5b8135613287848260208601613222565b91505092915050565b5f67ffffffffffffffff8211156132aa576132a961316c565b5b602082029050919050565b5f80fd5b5f6132cb6132c684613290565b6131ca565b905080602084028301858111156132e5576132e46132b5565b5b835b8181101561332c57803567ffffffffffffffff81111561330a57613309613164565b5b8086016133178982613263565b855260208501945050506020810190506132e7565b5050509392505050565b5f82601f83011261334a57613349613164565b5b60026133578482856132b9565b91505092915050565b5f805f805f60a0868803121561337957613378612d92565b5b5f61338688828901612e6c565b955050602086013567ffffffffffffffff8111156133a7576133a6612d96565b5b6133b388828901613263565b945050604086013567ffffffffffffffff8111156133d4576133d3612d96565b5b6133e088828901613263565b935050606086013567ffffffffffffffff81111561340157613400612d96565b5b61340d88828901613336565b925050608061341e88828901612e6c565b9150509295509295909350565b5f602082840312156134405761343f612d92565b5b5f61344d84828501612feb565b91505092915050565b61345f81612e1a565b8114613469575f80fd5b50565b5f8135905061347a81613456565b92915050565b5f806040838503121561349657613495612d92565b5b5f6134a385828601612feb565b92505060206134b48582860161346c565b9150509250929050565b5f67ffffffffffffffff8211156134d8576134d761316c565b5b6134e182612f15565b9050602081019050919050565b5f6135006134fb846134be565b6131ca565b90508281526020810184848401111561351c5761351b613168565b5b613527848285613214565b509392505050565b5f82601f83011261354357613542613164565b5b81356135538482602086016134ee565b91505092915050565b5f805f806080858703121561357457613573612d92565b5b5f61358187828801612feb565b945050602061359287828801612feb565b93505060406135a387828801612e6c565b925050606085013567ffffffffffffffff8111156135c4576135c3612d96565b5b6135d08782880161352f565b91505092959194509250565b5f80604083850312156135f2576135f1612d92565b5b5f6135ff85828601612e6c565b925050602061361085828601612e6c565b9150509250929050565b5f6101008201905061362e5f83018b612fad565b61363b602083018a612fad565b818103604083015261364d8189612f25565b905081810360608301526136618188612f25565b90506136706080830187612eab565b61367d60a0830186612e25565b61368a60c0830185612eab565b61369760e0830184612e25565b9998505050505050505050565b5f80604083850312156136ba576136b9612d92565b5b5f6136c785828601612feb565b92505060206136d885828601612feb565b9150509250929050565b5f60029050919050565b5f81905092915050565b5f819050919050565b5f82825260208201905092915050565b5f61371982612ed3565b61372381856136ff565b9350613733818560208601612eed565b61373c81612f15565b840191505092915050565b5f613752838361370f565b905092915050565b5f602082019050919050565b5f613770826136e2565b61377a81856136ec565b93508360208202850161378c856136f6565b805f5b858110156137c757848403895281516137a88582613747565b94506137b38361375a565b925060208a0199505060018101905061378f565b50829750879550505050505092915050565b5f610120820190506137ed5f83018c612fad565b6137fa602083018b612fad565b818103604083015261380c818a612f25565b905081810360608301526138208189612f25565b905081810360808301526138348188613766565b905061384360a0830187612eab565b61385060c0830186612e25565b61385d60e0830185612eab565b61386b610100830184612e25565b9a9950505050505050505050565b7f4e487b71000000000000000000000000000000000000000000000000000000005f52602260045260245ffd5b5f60028204905060018216806138bd57607f821691505b6020821081036138d0576138cf613879565b5b50919050565b7f4e487b71000000000000000000000000000000000000000000000000000000005f52603260045260245ffd5b7f4e487b71000000000000000000000000000000000000000000000000000000005f52601160045260245ffd5b5f61393a82612e4d565b91507fffffffffffffffffffffffffffffffffffffffffffffffffffffffffffffffff820361396c5761396b613903565b5b600182019050919050565b7f43616c6c657220646f6573206e6f74206f776e20616e79206c616e64000000005f82015250565b5f6139ab601c83612edd565b91506139b682613977565b602082019050919050565b5f6020820190508181035f8301526139d88161399f565b9050919050565b5f6060820190506139f25f830186612fad565b6139ff6020830185612eab565b613a0c6040830184612fad565b949350505050565b7f4c616e6420616c726561647920726567697374657265640000000000000000005f82015250565b5f613a48601783612edd565b9150613a5382613a14565b602082019050919050565b5f6020820190508181035f830152613a7581613a3c565b9050919050565b5f81905092915050565b5f613a9082612ed3565b613a9a8185613a7c565b9350613aaa818560208601612eed565b80840191505092915050565b5f613ac18284613a86565b915081905092915050565b5f819050815f5260205f209050919050565b5f8154613aea816138a6565b613af48186613a7c565b9450600182165f8114613b0e5760018114613b2357613b55565b60ff1983168652811515820286019350613b55565b613b2c85613acc565b5f5b83811015613b4d57815481890152600182019150602081019050613b2e565b838801955050505b50505092915050565b5f613b698284613ade565b915081905092915050565b7f4c616e642077697468207468652073616d6520636f6f7264696e6174657320615f8201527f6c72656164792065786973747300000000000000000000000000000000000000602082015250565b5f613bce602d83612edd565b9150613bd982613b74565b604082019050919050565b5f6020820190508181035f830152613bfb81613bc2565b9050919050565b5f6020601f8301049050919050565b5f82821b905092915050565b5f60088302613c4c7fffffffffffffffffffffffffffffffffffffffffffffffffffffffffffffffff82613c11565b613c568683613c11565b95508019841693508086168417925050509392505050565b5f819050919050565b5f613c91613c8c613c8784612e4d565b613c6e565b612e4d565b9050919050565b5f819050919050565b613caa83613c77565b613cbe613cb682613c98565b848454613c1d565b825550505050565b5f90565b613cd2613cc6565b613cdd818484613ca1565b505050565b5b81811015613d0057613cf55f82613cca565b600181019050613ce3565b5050565b601f821115613d4557613d1681613acc565b613d1f84613c02565b81016020851015613d2e578190505b613d42613d3a85613c02565b830182613ce2565b50505b505050565b5f82821c905092915050565b5f613d655f1984600802613d4a565b1980831691505092915050565b5f613d7d8383613d56565b9150826002028217905092915050565b613d9682612ed3565b67ffffffffffffffff811115613daf57613dae61316c565b5b613db982546138a6565b613dc4828285613d04565b5f60209050601f831160018114613df5575f8415613de3578287015190505b613ded8582613d72565b865550613e54565b601f198416613e0386613acc565b5f5b82811015613e2a57848901518255600182019150602085019450602081019050613e05565b86831015613e475784890151613e43601f891682613d56565b8355505b6001600288020188555050505b505050505050565b5f604082019050613e6f5f830185612eab565b613e7c6020830184612fad565b9392505050565b7f4c616e642070617263656c20646f6573206e6f742065786973740000000000005f82015250565b5f613eb7601a83612edd565b9150613ec282613e83565b602082019050919050565b5f6020820190508181035f830152613ee481613eab565b9050919050565b7f556e617574686f72697a6564206d696e74696e670000000000000000000000005f82015250565b5f613f1f601483612edd565b9150613f2a82613eeb565b602082019050919050565b5f6020820190508181035f830152613f4c81613f13565b9050919050565b7f596f7520617265206e6f7420746865206f776e6572206f662074686973206c615f8201527f6e64000000000000000000000000000000000000000000000000000000000000602082015250565b5f613fad602283612edd565b9150613fb882613f53565b604082019050919050565b5f6020820190508181035f830152613fda81613fa1565b9050919050565b5f613feb82612e4d565b9150613ff683612e4d565b925082820261400481612e4d565b9150828204841483151761401b5761401a613903565b5b5092915050565b5f61402d8285613a86565b91506140398284613a86565b91508190509392505050565b7f4c616e642070617263656c206f776e6572206164647265737320697320696e765f8201527f616c696400000000000000000000000000000000000000000000000000000000602082015250565b5f61409f602483612edd565b91506140aa82614045565b604082019050919050565b5f6020820190508181035f8301526140cc81614093565b9050919050565b7f496e73756666696369656e742066756e647320746f206275792074686973206c5f8201527f616e640000000000000000000000000000000000000000000000000000000000602082015250565b5f61412d602383612edd565b9150614138826140d3565b604082019050919050565b5f6020820190508181035f83015261415a81614121565b9050919050565b5f61416b82612e4d565b915061417683612e4d565b925082820390508181111561418e5761418d613903565b5b92915050565b7f4e487b71000000000000000000000000000000000000000000000000000000005f52603160045260245ffd5b5f81519050919050565b5f82825260208201905092915050565b5f6141e5826141c1565b6141ef81856141cb565b93506141ff818560208601612eed565b61420881612f15565b840191505092915050565b5f6080820190506142265f830187612fad565b6142336020830186612fad565b6142406040830185612eab565b818103606083015261425281846141db565b905095945050505050565b5f8151905061426b81612dc5565b92915050565b5f6020828403121561428657614285612d92565b5b5f6142938482850161425d565b91505092915050565b7f4e487b71000000000000000000000000000000000000000000000000000000005f52601260045260245ffd5b5f6040820190506142dc5f830185612fad565b6142e96020830184612eab565b939250505056fea2646970667358221220f73bbd911934a466facb551b91027ab89c3dfeb21f725fa9d5c4807f9a761bff64736f6c63430008150033",
  "immutableReferences": {},
  "source": "// SPDX-License-Identifier: GPL-3.0\r\n\r\npragma solidity ^0.8.0;\r\n\r\nimport \"@openzeppelin/contracts/token/ERC721/ERC721.sol\";\r\n\r\ncontract LandNFT is ERC721 {\r\n    constructor() ERC721(\"LandNFT\", \"LAND\") {}\r\n\r\n    struct Land {\r\n        address firstOwner;\r\n        address presentOwner;\r\n        string description;\r\n        string image;\r\n        string[2] coordinates;\r\n        uint256 area;\r\n        bool exists;\r\n        uint256 price;\r\n        bool isListed;\r\n    }\r\n\r\n    mapping(uint256 => Land) public lands;\r\n    mapping(address => uint256[]) public userMintedLands;\r\n\r\n    event LandRegistered(uint256 landId, address owner);\r\n\r\n    uint256[] public listedLands;\r\n\r\n    function registerLand(uint256 id, string memory description, string memory image, string[2] memory coordinates, uint256 area) public {\r\n        require(!lands[id].exists, \"Land already registered\");\r\n\r\n        // Check if a land parcel with the same coordinates already exists\r\n        for (uint256 i = 0; i < listedLands.length; i++) {\r\n            uint256 existingLandId = listedLands[i];\r\n            if (keccak256(abi.encodePacked(lands[existingLandId].coordinates[0])) == keccak256(abi.encodePacked(coordinates[0])) &&\r\n                keccak256(abi.encodePacked(lands[existingLandId].coordinates[1])) == keccak256(abi.encodePacked(coordinates[1]))) {\r\n                revert(\"Land with the same coordinates already exists\");\r\n            }\r\n        }\r\n\r\n        lands[id] = Land(msg.sender, msg.sender, description, image, coordinates, area, true, 0, false);\r\n\r\n        emit LandRegistered(id, msg.sender);\r\n    }\r\n\r\n    function mintNFT(uint256 landId) public {\r\n        require(lands[landId].exists, \"Land parcel does not exist\");\r\n        require(lands[landId].firstOwner == msg.sender, \"Unauthorized minting\");\r\n\r\n        _mint(msg.sender, landId);\r\n        userMintedLands[msg.sender].push(landId);\r\n    }\r\n\r\n    function listForSaleInEther(uint256 landId, uint256 priceInEther) public {\r\n    require(lands[landId].exists, \"Land parcel does not exist\");\r\n    require(lands[landId].presentOwner == msg.sender, \"You are not the owner of this land\");\r\n\r\n    // Convert the price from Ether to wei\r\n    uint256 priceInWei = priceInEther * 1 ether;\r\n\r\n    lands[landId].price = priceInWei;\r\n    lands[landId].isListed = true;\r\n    listedLands.push(landId);\r\n}\r\n\r\n    function buyLand(uint256 landId) public payable {\r\n    Land storage land = lands[landId];\r\n\r\n    require(land.exists, \"Land parcel does not exist\");\r\n    require(land.presentOwner != address(0), \"Land parcel owner address is invalid\");\r\n    require(msg.value >= land.price, \"Insufficient funds to buy this land\");\r\n\r\n    // Transfer the ownership of the NFT\r\n    _transfer(land.presentOwner, msg.sender, landId);\r\n\r\n    // Transfer the payment to the previous owner\r\n    payable(land.presentOwner).transfer(msg.value);\r\n\r\n    // Update land details\r\n    address previousOwner = land.presentOwner;\r\n    land.presentOwner = msg.sender;\r\n    land.price = 0;\r\n    land.isListed = false;\r\n\r\n    // Remove the land ID from listedLands\r\n    for (uint256 i = 0; i < listedLands.length; i++) {\r\n        if (listedLands[i] == landId) {\r\n            listedLands[i] = listedLands[listedLands.length - 1];\r\n            listedLands.pop();\r\n            break;\r\n        }\r\n    }\r\n\r\n    // Remove the land ID from the seller's minted list\r\n    uint256[] storage sellerMintedLands = userMintedLands[previousOwner];\r\n    for (uint256 i = 0; i < sellerMintedLands.length; i++) {\r\n        if (sellerMintedLands[i] == landId) {\r\n            sellerMintedLands[i] = sellerMintedLands[sellerMintedLands.length - 1];\r\n            sellerMintedLands.pop();\r\n            break;\r\n        }\r\n    }\r\n\r\n    // Add the land ID to the buyer's minted list\r\n    userMintedLands[msg.sender].push(landId);\r\n}\r\n\r\n\r\n    function getUserLandDetails() public view returns (uint256[] memory) {\r\n        uint256 userLandCount = 0;\r\n\r\n        // Count the number of lands owned by the caller\r\n        for (uint256 i = 0; i < listedLands.length; i++) {\r\n            uint256 landId = listedLands[i];\r\n            if (lands[landId].presentOwner == msg.sender) {\r\n                userLandCount++;\r\n            }\r\n        }\r\n\r\n        // Check if the caller owns any land\r\n        require(userLandCount > 0, \"Caller does not own any land\");\r\n\r\n        // Create an array to store the land IDs owned by the caller\r\n        uint256[] memory userLandIds = new uint256[](userLandCount);\r\n        uint256 index = 0;\r\n\r\n        // Populate the array with land IDs owned by the caller\r\n        for (uint256 j = 0; j < listedLands.length; j++) {\r\n            uint256 landId = listedLands[j];\r\n            if (lands[landId].presentOwner == msg.sender) {\r\n                userLandIds[index] = landId;\r\n                index++;\r\n            }\r\n        }\r\n\r\n        return userLandIds;\r\n    }\r\n\r\n    function getListedLands() public view returns (uint256[] memory) {\r\n        return listedLands;\r\n    }\r\n\r\n    function getUserMintedLands(address user) public view returns (uint256[] memory) {\r\n        return userMintedLands[user];\r\n    }\r\n\r\n    function getLand(uint256 landId) public view returns (address firstOwner, address presentOwner, string memory description, string memory image, string[2] memory coordinates, uint256 area, bool exists, uint256 price, bool isListed) {\r\n        Land storage land = lands[landId];\r\n        return (land.firstOwner, land.presentOwner, land.description, land.image, land.coordinates, land.area, land.exists, land.price, land.isListed);\r\n    }\r\n}\r\n",
  "sourcePath": "C:\\Users\\Asus\\Desktop\\suresh\\landnft\\contracts\\LandNFT.sol",
  "compiler": {
    "name": "solc",
    "version": "0.8.21+commit.d9974bed.Emscripten.clang"
  },
  "schemaVersion": "3.4.16",
  "updatedAt": "2024-06-10T09:45:06.121Z",
  "devdoc": {
    "errors": {
      "ERC721IncorrectOwner(address,uint256,address)": [
        {
          "details": "Indicates an error related to the ownership over a particular token. Used in transfers.",
          "params": {
            "owner": "Address of the current owner of a token.",
            "sender": "Address whose tokens are being transferred.",
            "tokenId": "Identifier number of a token."
          }
        }
      ],
      "ERC721InsufficientApproval(address,uint256)": [
        {
          "details": "Indicates a failure with the `operator`s approval. Used in transfers.",
          "params": {
            "operator": "Address that may be allowed to operate on tokens without being their owner.",
            "tokenId": "Identifier number of a token."
          }
        }
      ],
      "ERC721InvalidApprover(address)": [
        {
          "details": "Indicates a failure with the `approver` of a token to be approved. Used in approvals.",
          "params": {
            "approver": "Address initiating an approval operation."
          }
        }
      ],
      "ERC721InvalidOperator(address)": [
        {
          "details": "Indicates a failure with the `operator` to be approved. Used in approvals.",
          "params": {
            "operator": "Address that may be allowed to operate on tokens without being their owner."
          }
        }
      ],
      "ERC721InvalidOwner(address)": [
        {
          "details": "Indicates that an address can't be an owner. For example, `address(0)` is a forbidden owner in EIP-20. Used in balance queries.",
          "params": {
            "owner": "Address of the current owner of a token."
          }
        }
      ],
      "ERC721InvalidReceiver(address)": [
        {
          "details": "Indicates a failure with the token `receiver`. Used in transfers.",
          "params": {
            "receiver": "Address to which tokens are being transferred."
          }
        }
      ],
      "ERC721InvalidSender(address)": [
        {
          "details": "Indicates a failure with the token `sender`. Used in transfers.",
          "params": {
            "sender": "Address whose tokens are being transferred."
          }
        }
      ],
      "ERC721NonexistentToken(uint256)": [
        {
          "details": "Indicates a `tokenId` whose `owner` is the zero address.",
          "params": {
            "tokenId": "Identifier number of a token."
          }
        }
      ]
    },
    "events": {
      "Approval(address,address,uint256)": {
        "details": "Emitted when `owner` enables `approved` to manage the `tokenId` token."
      },
      "ApprovalForAll(address,address,bool)": {
        "details": "Emitted when `owner` enables or disables (`approved`) `operator` to manage all of its assets."
      },
      "Transfer(address,address,uint256)": {
        "details": "Emitted when `tokenId` token is transferred from `from` to `to`."
      }
    },
    "kind": "dev",
    "methods": {
      "approve(address,uint256)": {
        "details": "See {IERC721-approve}."
      },
      "balanceOf(address)": {
        "details": "See {IERC721-balanceOf}."
      },
      "getApproved(uint256)": {
        "details": "See {IERC721-getApproved}."
      },
      "isApprovedForAll(address,address)": {
        "details": "See {IERC721-isApprovedForAll}."
      },
      "name()": {
        "details": "See {IERC721Metadata-name}."
      },
      "ownerOf(uint256)": {
        "details": "See {IERC721-ownerOf}."
      },
      "safeTransferFrom(address,address,uint256)": {
        "details": "See {IERC721-safeTransferFrom}."
      },
      "safeTransferFrom(address,address,uint256,bytes)": {
        "details": "See {IERC721-safeTransferFrom}."
      },
      "setApprovalForAll(address,bool)": {
        "details": "See {IERC721-setApprovalForAll}."
      },
      "supportsInterface(bytes4)": {
        "details": "See {IERC165-supportsInterface}."
      },
      "symbol()": {
        "details": "See {IERC721Metadata-symbol}."
      },
      "tokenURI(uint256)": {
        "details": "See {IERC721Metadata-tokenURI}."
      },
      "transferFrom(address,address,uint256)": {
        "details": "See {IERC721-transferFrom}."
      }
    },
    "version": 1
  },
  "userdoc": {
    "kind": "user",
    "methods": {},
    "version": 1
  }
}